{"abi":[{"type":"constructor","inputs":[{"name":"_axelarGateway","type":"address","internalType":"address"},{"name":"_axelarGasReceiver","type":"address","internalType":"address"},{"name":"_xrouter","type":"address","internalType":"address"}],"stateMutability":"nonpayable"},{"type":"function","name":"addCat","inputs":[{"name":"_cat","type":"address","internalType":"address"}],"outputs":[],"stateMutability":"nonpayable"},{"type":"function","name":"cats","inputs":[{"name":"","type":"address","internalType":"address"}],"outputs":[{"name":"","type":"bool","internalType":"bool"}],"stateMutability":"view"},{"type":"function","name":"depositCat","inputs":[{"name":"cat","type":"address","internalType":"address"},{"name":"toToken","type":"address","internalType":"address"},{"name":"symbol","type":"string","internalType":"string"},{"name":"amount","type":"uint256","internalType":"uint256"},{"name":"bridgeDestination","type":"string","internalType":"string"},{"name":"swapData","type":"bytes","internalType":"bytes"}],"outputs":[],"stateMutability":"payable"},{"type":"function","name":"execute","inputs":[{"name":"commandId","type":"bytes32","internalType":"bytes32"},{"name":"sourceChain","type":"string","internalType":"string"},{"name":"sourceAddress","type":"string","internalType":"string"},{"name":"payload","type":"bytes","internalType":"bytes"}],"outputs":[],"stateMutability":"nonpayable"},{"type":"function","name":"executeWithToken","inputs":[{"name":"commandId","type":"bytes32","internalType":"bytes32"},{"name":"sourceChain","type":"string","internalType":"string"},{"name":"sourceAddress","type":"string","internalType":"string"},{"name":"payload","type":"bytes","internalType":"bytes"},{"name":"tokenSymbol","type":"string","internalType":"string"},{"name":"amount","type":"uint256","internalType":"uint256"}],"outputs":[],"stateMutability":"nonpayable"},{"type":"function","name":"fund","inputs":[{"name":"amount","type":"uint256","internalType":"uint256"}],"outputs":[],"stateMutability":"payable"},{"type":"function","name":"gasService","inputs":[],"outputs":[{"name":"","type":"address","internalType":"contract IAxelarGasService"}],"stateMutability":"view"},{"type":"function","name":"gateway","inputs":[],"outputs":[{"name":"","type":"address","internalType":"contract IAxelarGateway"}],"stateMutability":"view"},{"type":"function","name":"removeCat","inputs":[{"name":"_cat","type":"address","internalType":"address"}],"outputs":[],"stateMutability":"nonpayable"},{"type":"function","name":"squidRouterPolygon","inputs":[],"outputs":[{"name":"","type":"address","internalType":"address"}],"stateMutability":"view"},{"type":"function","name":"swapAxlUSDCForMingus","inputs":[{"name":"amount","type":"uint256","internalType":"uint256"}],"outputs":[{"name":"","type":"uint256","internalType":"uint256"}],"stateMutability":"nonpayable"},{"type":"error","name":"AddressEmptyCode","inputs":[{"name":"target","type":"address","internalType":"address"}]},{"type":"error","name":"AddressInsufficientBalance","inputs":[{"name":"account","type":"address","internalType":"address"}]},{"type":"error","name":"CatNotSupported","inputs":[]},{"type":"error","name":"FailedInnerCall","inputs":[]},{"type":"error","name":"InvalidAddress","inputs":[]},{"type":"error","name":"InvalidBridgedAsset","inputs":[]},{"type":"error","name":"NoUSDCRetrievedFromSwap","inputs":[]},{"type":"error","name":"NotApprovedByGateway","inputs":[]},{"type":"error","name":"NotEscrow","inputs":[]}],"bytecode":{"object":"0x60c06040525f80546001600160a01b031990811673eb466342c4d449bc9f53a865d5cb90586f405215179091556001805482167382af49447d8a07e3bd95bd0d56f35241523fbab117905560028054821673ff970a61a04b1ca14834a43f5de4533ebddb5cc817905560038054821673da10009cbd5d07dd0cecc66161fc93d7c9000da117905560048054821673af88d065e77c8cc2239327c5edb3a432268e583117905560058054821673750e4c4984a9e0f12978ea6742bc1c5d248f40ed179055600680548216737ceb23fd6bc0add59e62ac25578270cff1b9f619179055600780548216732791bca1f2de4661ed88a30c99a7a9449aa8417417905560088054821673a8f77a162f0d8fc775a2aae9ea855f293e5c977217905560098054821673c873fecbd354f5a56e00e710b90ef4201db2448d179055600a8054821673f5b509bb0909a69b1c207e495f687a596c168e12179055600b8054821673e592427a0aece92de3edee1f18e0157c05861564179055600c80548216738f5db364207b9feaf8ab3eeb30f46ac9f4df8807179055600f8054821673ce16f69375520ab01377ce7b88f5ba8c48f8d66690811790915560108054909216179055348015620001cb575f80fd5b506040516200172838038062001728833981016040819052620001ee9162000263565b826001600160a01b038116620002175760405163e6c4247b60e01b815260040160405180910390fd5b6001600160a01b0390811660805291821660a052600d80546001600160a01b0319169190921617905550620002aa565b80516001600160a01b03811681146200025e575f80fd5b919050565b5f805f6060848603121562000276575f80fd5b620002818462000247565b9250620002916020850162000247565b9150620002a16040850162000247565b90509250925092565b60805160a051611447620002e15f395f61019801525f8181610127015281816102b8015281816103a80152610b1201526114475ff3fe60806040526004361061009a575f3560e01c80636a22d8cc116100625780636a22d8cc1461018757806396be9c1d146101ba578063c6a0ec52146101f8578063ca1d209d14610225578063d5aafb1f14610238578063ef3f23dc1461024b575f80fd5b8063052b28591461009e57806309b5ed1e146100da578063116191b6146101165780631a98b2e0146101495780634916065814610168575b5f80fd5b3480156100a9575f80fd5b506100d86100b8366004610daa565b6001600160a01b03165f908152600e60205260409020805460ff19169055565b005b3480156100e5575f80fd5b50600f546100f9906001600160a01b031681565b6040516001600160a01b0390911681526020015b60405180910390f35b348015610121575f80fd5b506100f97f000000000000000000000000000000000000000000000000000000000000000081565b348015610154575f80fd5b506100d8610163366004610e0a565b610288565b348015610173575f80fd5b506100d8610182366004610eda565b610378565b348015610192575f80fd5b506100f97f000000000000000000000000000000000000000000000000000000000000000081565b3480156101c5575f80fd5b506101e86101d4366004610daa565b600e6020525f908152604090205460ff1681565b604051901515815260200161010d565b348015610203575f80fd5b50610217610212366004610f76565b61044e565b60405190815260200161010d565b6100d8610233366004610f76565b610789565b6100d8610246366004611032565b610830565b348015610256575f80fd5b506100d8610265366004610daa565b6001600160a01b03165f908152600e60205260409020805460ff19166001179055565b5f85856040516102999291906110fd565b604051908190038120631876eed960e01b825291506001600160a01b037f00000000000000000000000000000000000000000000000000000000000000001690631876eed9906102fd908e908e908e908e908e9089908d908d908d90600401611134565b6020604051808303815f875af1158015610319573d5f803e3d5ffd5b505050506040513d601f19601f8201168201806040525081019061033d9190611192565b61035a57604051631403112d60e21b815260040160405180910390fd5b61036b8a8a8a8a8a8a8a8a8a610b00565b5050505050505050505050565b5f82826040516103899291906110fd565b604051908190038120635f6970c360e01b825291506001600160a01b037f00000000000000000000000000000000000000000000000000000000000000001690635f6970c3906103e7908b908b908b908b908b9089906004016111b1565b6020604051808303815f875af1158015610403573d5f803e3d5ffd5b505050506040513d601f19601f820116820180604052508101906104279190611192565b61044457604051631403112d60e21b815260040160405180910390fd5b5050505050505050565b5f8054600b5460405163095ea7b360e01b81526001600160a01b0391821660048201526024810185905291169063095ea7b3906044016020604051808303815f875af11580156104a0573d5f803e3d5ffd5b505050506040513d601f19601f820116820180604052508101906104c49190611192565b506040805160a0810182525f8054600480546001546bffffffffffffffffffffffff19606094851b811660c0880152607d60ea1b60d4880181905292851b811660d788015260eb870192909252831b1660ee850152845180850360e2018152610102850186528452306020850152428486015290830186905260808301829052600b54935163c04b8d5960e01b8152929391926001600160a01b039092169163c04b8d59916105759186910161123e565b6020604051808303815f875af1158015610591573d5f803e3d5ffd5b505050506040513d601f19601f820116820180604052508101906105b59190611295565b6040805160028082526060820183529293505f929091602083019080368337505060015482519293506001600160a01b0316918391505f906105f9576105f96112ac565b6001600160a01b03928316602091820292909201015260085482519116908290600190811061062a5761062a6112ac565b6001600160a01b03928316602091820292909201015260015460095460405163095ea7b360e01b815290831660048201526024810185905291169063095ea7b3906044016020604051808303815f875af115801561068a573d5f803e3d5ffd5b505050506040513d601f19601f820116820180604052508101906106ae9190611192565b5060095460405163561c49dd60e11b81526001600160a01b039091169063ac3893ba906106e99085905f9086903090839042906004016112c0565b5f604051808303815f87803b158015610700575f80fd5b505af1158015610712573d5f803e3d5ffd5b50506008546040516370a0823160e01b81523060048201526001600160a01b0390911692506370a082319150602401602060405180830381865afa15801561075c573d5f803e3d5ffd5b505050506040513d601f19601f820116820180604052508101906107809190611295565b95945050505050565b600c546001600160a01b031633146107b457604051637e223fb160e11b815260040160405180910390fd5b6008546040516323b872dd60e01b8152336004820152306024820152604481018390526001600160a01b03909116906323b872dd906064016020604051808303815f875af1158015610808573d5f803e3d5ffd5b505050506040513d601f19601f8201168201806040525081019061082c9190611192565b5050565b6001600160a01b0387165f908152600e602052604090205460ff166108685760405163f9e4118160e01b815260040160405180910390fd5b6040516323b872dd60e01b81523360048201523060248201526044810185905287906001600160a01b038216906323b872dd906064016020604051808303815f875af11580156108ba573d5f803e3d5ffd5b505050506040513d601f19601f820116820180604052508101906108de9190611192565b50600d5460405163095ea7b360e01b81526001600160a01b039182166004820152602481018790529082169063095ea7b3906044016020604051808303815f875af115801561092f573d5f803e3d5ffd5b505050506040513d601f19601f820116820180604052508101906109539190611192565b50600d5461096a906001600160a01b031683610c5c565b506040516370a0823160e01b81523060048201525f906001600160a01b038916906370a0823190602401602060405180830381865afa1580156109af573d5f803e3d5ffd5b505050506040513d601f19601f820116820180604052508101906109d39190611295565b90505f81116109f5576040516310e34df760e21b815260040160405180910390fd5b604080513360208201525f910160408051808303601f190181529082905260105463095ea7b360e01b83526001600160a01b039081166004840152602483018590529092508a169063095ea7b3906044016020604051808303815f875af1158015610a62573d5f803e3d5ffd5b505050506040513d601f19601f82011682018060405250810190610a869190611192565b5060105460405163010a3bcb60e51b81526001600160a01b03909116906321477960903490610ac6908c9087908c908c9089903390600190600401611339565b5f604051808303818588803b158015610add575f80fd5b505af1158015610aef573d5f803e3d5ffd5b505050505050505050505050505050565b5f610b0d85870187610daa565b90505f7f00000000000000000000000000000000000000000000000000000000000000006001600160a01b031663935b13f686866040518363ffffffff1660e01b8152600401610b5e9291906113c0565b602060405180830381865afa158015610b79573d5f803e3d5ffd5b505050506040513d601f19601f82011682018060405250810190610b9d91906113db565b5f549091506001600160a01b03808316911614610bcd576040516370dc923760e11b815260040160405180910390fd5b5f610bd78461044e565b60085460405163a9059cbb60e01b81526001600160a01b0386811660048301526024820184905292935091169063a9059cbb906044016020604051808303815f875af1158015610c29573d5f803e3d5ffd5b505050506040513d601f19601f82011682018060405250810190610c4d9190611192565b50505050505050505050505050565b6060610c6983835f610c70565b9392505050565b606081471015610c9a5760405163cd78605960e01b81523060048201526024015b60405180910390fd5b5f80856001600160a01b03168486604051610cb591906113f6565b5f6040518083038185875af1925050503d805f8114610cef576040519150601f19603f3d011682016040523d82523d5f602084013e610cf4565b606091505b5091509150610d04868383610d0e565b9695505050505050565b606082610d2357610d1e82610d6a565b610c69565b8151158015610d3a57506001600160a01b0384163b155b15610d6357604051639996b31560e01b81526001600160a01b0385166004820152602401610c91565b5080610c69565b805115610d7a5780518082602001fd5b604051630a12f52160e11b815260040160405180910390fd5b50565b6001600160a01b0381168114610d93575f80fd5b5f60208284031215610dba575f80fd5b8135610c6981610d96565b5f8083601f840112610dd5575f80fd5b50813567ffffffffffffffff811115610dec575f80fd5b602083019150836020828501011115610e03575f80fd5b9250929050565b5f805f805f805f805f8060c08b8d031215610e23575f80fd5b8a35995060208b013567ffffffffffffffff80821115610e41575f80fd5b610e4d8e838f01610dc5565b909b50995060408d0135915080821115610e65575f80fd5b610e718e838f01610dc5565b909950975060608d0135915080821115610e89575f80fd5b610e958e838f01610dc5565b909750955060808d0135915080821115610ead575f80fd5b50610eba8d828e01610dc5565b9150809450508092505060a08b013590509295989b9194979a5092959850565b5f805f805f805f6080888a031215610ef0575f80fd5b87359650602088013567ffffffffffffffff80821115610f0e575f80fd5b610f1a8b838c01610dc5565b909850965060408a0135915080821115610f32575f80fd5b610f3e8b838c01610dc5565b909650945060608a0135915080821115610f56575f80fd5b50610f638a828b01610dc5565b989b979a50959850939692959293505050565b5f60208284031215610f86575f80fd5b5035919050565b634e487b7160e01b5f52604160045260245ffd5b5f67ffffffffffffffff80841115610fbb57610fbb610f8d565b604051601f8501601f19908116603f01168101908282118183101715610fe357610fe3610f8d565b81604052809350858152868686011115610ffb575f80fd5b858560208301375f602087830101525050509392505050565b5f82601f830112611023575f80fd5b610c6983833560208501610fa1565b5f805f805f805f60c0888a031215611048575f80fd5b873561105381610d96565b9650602088013561106381610d96565b9550604088013567ffffffffffffffff8082111561107f575f80fd5b818a0191508a601f830112611092575f80fd5b6110a18b833560208501610fa1565b965060608a0135955060808a01359150808211156110bd575f80fd5b6110c98b838c01610dc5565b909550935060a08a01359150808211156110e1575f80fd5b506110ee8a828b01611014565b91505092959891949750929550565b818382375f9101908152919050565b81835281816020850137505f828201602090810191909152601f909101601f19169091010190565b89815260c060208201525f61114d60c083018a8c61110c565b828103604084015261116081898b61110c565b9050866060840152828103608084015261117b81868861110c565b9150508260a08301529a9950505050505050505050565b5f602082840312156111a2575f80fd5b81518015158114610c69575f80fd5b868152608060208201525f6111ca60808301878961110c565b82810360408401526111dd81868861110c565b915050826060830152979650505050505050565b5f5b8381101561120b5781810151838201526020016111f3565b50505f910152565b5f815180845261122a8160208601602086016111f1565b601f01601f19169290920160200192915050565b602081525f825160a0602084015261125960c0840182611213565b905060018060a01b0360208501511660408401526040840151606084015260608401516080840152608084015160a08401528091505092915050565b5f602082840312156112a5575f80fd5b5051919050565b634e487b7160e01b5f52603260045260245ffd5b5f60c08201888352602088602085015260c0604085015281885180845260e08601915060208a0193505f5b818110156113105784516001600160a01b0316835293830193918301916001016112eb565b50506001600160a01b039788166060860152959096166080840152505060a00152949350505050565b60e081525f61134b60e083018a611213565b8860208401528281038060408501526008825267617262697472756d60c01b60208301526040810160608501525061138760408201888a61110c565b9050828103608084015261139b8187611213565b6001600160a01b039590951660a0840152505090151560c09091015295945050505050565b602081525f6113d360208301848661110c565b949350505050565b5f602082840312156113eb575f80fd5b8151610c6981610d96565b5f82516114078184602087016111f1565b919091019291505056fea26469706673582212203f78dac22bd0619d8a0eebf357ed4faec6e70c82458bafed1b0338930b9e20fc64736f6c63430008170033","linkReferences":{}},"methodIdentifiers":{"addCat(address)":"ef3f23dc","cats(address)":"96be9c1d","depositCat(address,address,string,uint256,string,bytes)":"d5aafb1f","execute(bytes32,string,string,bytes)":"49160658","executeWithToken(bytes32,string,string,bytes,string,uint256)":"1a98b2e0","fund(uint256)":"ca1d209d","gasService()":"6a22d8cc","gateway()":"116191b6","removeCat(address)":"052b2859","squidRouterPolygon()":"09b5ed1e","swapAxlUSDCForMingus(uint256)":"c6a0ec52"},"id":44}